:0300000002109952
:0C109900787FE4F6D8FD7581200210E09D
:1008000057726F6E6747756573736573202D20305F
:1008100000596F7520576F6E00596F75204C6F73BC
:100820007400000000000000000000000000000054
:1008300030616369643131313061726D79313131E8
:100840003062616C6C3131313062656572313131E9
:1008500030626F61743131313063617368313131CD
:10086000306369747931313130646F6F7231313195
:100870003064727567313131306576696C31313190
:10088000306661726D31313130676F616C31313199
:1008900030686F6C653131313069726F6E31313172
:1008A000306A6F686E313131306B656E7431313161
:1008B000306C6F676F313131306D6173733131314D
:1008C000306E696E65313131306F72616C3131314A
:1008D000307061696E31313130707562673131313C
:1008E000307075726531313130726163653131312B
:1008F000307261696E31313130736E6F7731313101
:100900003074616E6B3131313075736572313131F4
:1009100030766F74653131313077616C6B313131E4
:100920003079617264313131307A65726F313131D1
:10093000307A6F6E65313131306A617A7A7931316E
:100940003070697A7A613131306164756C7431313B
:1009500030616C61726D3131306170706C65313154
:100960003062697463683131306265616368313166
:100970003063686169723131306368696E61313149
:100980003064656174683131306561727468313129
:1009900030666C617368313130677265656E313114
:1009A000306861727279313130696E7075743131CD
:1009B000306A6170616E3131306B6E6F776E3131DC
:1009C000306C617567683131306D616769633131F1
:1009D000306D6F6E65793131306E6F6963653131BD
:1009E000306F6365616E31313070617065723131C5
:1009F00030706172696E31313070686F6E6531319F
:100A000030717565656E313130726F676572313185
:100A10003073636F7065313130746565746831317E
:100A200030757262616E3131307669727573313151
:100A300030776865656C313130776F726C64313155
:100A4000307969656C64313130796F757468313132
:100A500030616E696B6574313061797573683131FD
:100A600030736861616E31313076696E65657431FD
:100A7000306162726F61643130617574686F7231B8
:100A8000306265617574793130636F6666656531B2
:100A90003064657369676E3130656E657267793190
:100AA0003066617468657231306672656E63683194
:100AB00030676C6F62616C3130686F6E6573743172
:100AC0003069736C616E6431306A65727365793157
:100AD000306C6573736F6E31306D61747465723133
:100AE000306E756D62657231306F78666F72643129
:100AF0003070616C6163653130706C616E6574314A
:100B000030726174696E6731307363686F6F6C3116
:100B1000307477656C76653130756E6971756531E5
:100B200030766973696F6E313077686F6C6C7931CC
:100B30003079656C6C6F77313077726974657231BA
:100B400030737769746368313074656E64657231CF
:0412A100C101C100C6
:10117200E4F5A0C282C280C2817F38FE1212737F60
:10118200047E001212337F067E001212737F047EE9
:10119200001212337F0C7E001212737F047E001243
:1011A20012337F017E001212737F047E001212330B
:0711B2007F807E0002127332
:0B1228007F017E001212737F0A7E001F
:10123300E4FDFCC3ED9FEC9E5015E4FBFA0BBB00F1
:0F124300010ABA01F8BB7EF50DBD00010C80E475
:011252002279
:0E127300C280C281D2828FA012122FC28222AC
:0E128100D280C281D2828FA012122FC282228E
:1011F500900027EBF0A3EAF0A3E9F0900027E0FBCD
:10120500A3E0FAA3E0F9120EFD6017900027A3E40E
:1012150075F001120F98A9F0FA120EFDFF12128156
:0312250080D9224B
:10125300758920758DF3759850D28ED2ACD2AF229A
:081299008F993001FDC2012212
:09128F00E4FF3000FDC200AF993C
:011298002233
:0300230002126363
:10126300309905C299D20132309804C298D2003223
:0E11B900900027EEF0A3EFF0A3ECF0A3EDF012
:1011C700121125900027E0FCA3E0FDC390002AE060
:1011D7009DFD900029E09CCD2401CD3400FC120F29
:0D11E70043900028E02DFF900027E03CFE23
:0111F40022D8
:0B0FF300900027EBF0A3EAF0A3E9F068
:100FFE00900030E4F0A304F0E4A3F0A3F090002EF0
:10100E00F0A304F090002EE0FEA3E0FFD39407EED1
:10101E009400506E900027E0FBA3E0FAA3E0F98F56
:10102E00828E83120F16FF90002DE0B50744A3E0C9
:10103E00FCA3E0FD900031E025E0FF900030E033AE
:10104E00FE90002AE0FBA3E0FAA3E0F98F828E83E4
:10105E00EC8DF0120FAE900031E004F070069000AF
:10106E0030E004F0900033E004F07006900032E0BF
:10107E0004F090002FE004F0708A90002EE004F04F
:0A108E008082900032E0FEA3E0FF34
:011098002235
:100B5000E4900000F078097C007D017BFF7A087941
:100B600022FE7F0E120ED77D637C00E4FFFE121181
:100B7000B9900017EEF0A3EFF0E4900021F0A3F09D
:100B8000A3F0A3F0A3F0A3F090001BF0A3F090005B
:100B90001BE0FCA3E0FDD39407EC940050429000CE
:100BA00017E0FEA3E07803C333CE33CED8F9243068
:100BB000F58274083EF583E5822DF582E5833CF5E8
:100BC00083E493FF74012DF58274003CF583EFF00C
:100BD00090001CE004F070B690001BE004F080AEC2
:100BE000900019E4F0A304F0900019E0FEA3E0FFE8
:100BF000D39407EE9400502D74012FF58274003EBB
:100C0000F583E06431601E900026E004F0700690E9
:100C10000025E004F090001AE004F070CB90001979
:100C2000E004F080C31211721212531212287F8551
:100C300012122C900019E4F0A304F0900025E0FEBD
:100C4000A3E0FFD390001AE09F900019E09E50139C
:100C50007F5F121281A3E004F070E0900019E004BD
:100C6000F080D87FC012122A7BFF7A087900121117
:100C7000F5900025E0FEA3E0FF900021E06E7003F8
:100C8000A3E06F7003020D7D900023E07004A3E0E9
:100C900064067003020D7D12128F900000EFF09039
:100CA000002A7401F0A37400F0A37409F0A3EFF01C
:100CB0007B017A007901120FF3900009EEF0A3EFA7
:100CC000F04E7003020D53900019E4F0A304F0906D
:100CD0000009E0FEA3E0FF900019E0FCA3E0FDD3D3
:100CE0009FEC9E4003020D73900022E004F070061A
:100CF000900021E004F0ED25E0FFEC33FE74092FB5
:100D0000F58274003EF583E0FEA3E0FF90001DEE47
:100D1000F0A3EFF02484FFE43EFEA3F0A3EFF01273
:100D20001273900000E0FF121281E0FF12129990FE
:100D3000001DE0FEA3E02401F58274003EF58374FB
:100D400030F090001AE004F07085900019E004F093
:100D5000020CCF900024E004F07006900023E00421
:100D6000F07FCF7E00121273900023A3E02430FFA7
:100D70001212817FE87E03121233020C719000255B
:100D8000E0FEA3E0FF900021E0B50615A3E0B50763
:100D9000101212287F841212737BFF7A0879118057
:100DA0001D900023E07004A3E0640670147F01FE30
:100DB00012122C7F841212737BFF7A087919121198
:100DC000F5E490001BF0A3F090001BE0FEA3E0FF11
:100DD000C39407EE94005025EF25E0FFEE33FE7438
:100DE000092FF58274003EF583E4F0A3F090001C17
:100DF000E004F070D390001BE004F080CB7F887E8D
:070E000013121233020B670D
:1010A500020B50E493A3F8E493A34003F68001F206
:1010B50008DFF48029E493A3F85407240CC8C3334C
:1010C500C4540F4420C8834004F456800146F6DF1B
:1010D500E4800B01020408102040809012A1E47EF8
:1010E500019360BCA3FF543F30E509541FFEE49310
:1010F500A360010ECF54C025E060A840B8E493A3D7
:10110500FAE493A3F8E493A3C8C582C8CAC583CA01
:10111500F0A3C8C582C8CAC583CADFE9DEE780BEB9
:0112A5000048
:100E0700E709F608DFFA8046E709F208DFFA803ECD
:100E170088828C83E709F0A3DFFA8032E309F608BA
:100E2700DFFA8078E309F208DFFA807088828C8322
:100E3700E309F0A3DFFA806489828A83E0A3F608D6
:100E4700DFFA805889828A83E0A3F208DFFA804CB0
:100E570080D280FA80C680D4806980F28033801087
:100E670080A680EA809A80A880DA80E280CA8033F0
:100E770089828A83ECFAE493A3C8C582C8CCC58368
:100E8700CCF0A3C8C582C8CCC583CCDFE9DEE78038
:100E97000D89828A83E493A3F608DFF9ECFAA9F0B7
:100EA700EDFB2289828A83ECFAE0A3C8C582C8CC0D
:100EB700C583CCF0A3C8C582C8CCC583CCDFEADE26
:100EC700E880DB89828A83E493A3F208DFF980CC88
:100ED70088F0EF60010E4E60C388F0ED2402B40481
:100EE7000050B9F582EB2402B4040050AF23234528
:060EF7008223900E5773E8
:100EFD00BB010689828A83E0225002E722BBFE02F3
:090F0D00E32289828A83E4932225
:100F1600BB010CE58229F582E5833AF583E0225090
:100F260006E92582F8E622BBFE06E92582F8E222DA
:0D0F3600E58229F582E5833AF583E49322F4
:100F4300BC000BBE0029EF8DF084FFADF022E4CC92
:100F5300F875F008EF2FFFEE33FEEC33FCEE9DEC5B
:100F6300984005FCEE9DFE0FD5F0E9E4CEFD22EDA1
:100F7300F8F5F0EE8420D21CFEADF075F008EF2FEB
:100F8300FFED33FD4007985006D5F0F222C398FDDC
:050F93000FD5F0EA2279
:100F9800A3F8E0C5F025F0F0E5821582700215830C
:060FA800E0C838F0E82269
:100FAE00F8BB0111E58229F582E5833AF583E8F075
:100FBE00E5F0A3F0225009E92582C8F608A6F02232
:0D0FCE00BBFE09E92582C8F2E5F008F22219
:10112500900034120FDB7810EC4D4E4F70047CA507
:101135007DA5C3EC13FCED13FDEE13FEEF13FF507D
:1011450010EC64CCFCED644CFDEE644EFEEF64CE19
:10115500FFD8DF900034120FE7EE547FFE22900097
:0D11650034EEF0EFA3F0A374A5F0A3F02288
:0C0FDB00E0FCA3E0FDA3E0FEA3E0FF2289
:0C0FE700ECF0A3EDF0A3EEF0A3EFF0227D
:00000001FF
